:020000040800F2
:10000000000008203123000865230008AD07000820
:10001000B5070008BD070008C5070008000000007C
:10002000000000000000000000000000DDB9000832
:10003000652300080000000099B90008D9B800083D
:100040006523000865230008652300086523000870
:100050006523000865230008652300086523000860
:100060006523000865230008652300086523000850
:10007000E1C2000865230008F1C2000865230008FA
:100080006523000865230008652300087D07000834
:100090007107000865230008810700086523000830
:1000A0006523000865230008652300086523000810
:1000B0006523000865230008652300086523000800
:1000C00065230008652300086523000865230008F0
:1000D00065230008652300086523000865230008E0
:1000E00065230008652300086523000865230008D0
:1000F00065230008652300086523000865230008C0
:1001000065230008652300086523000865230008AF
:10011000652300086523000865230008652300089F
:10012000652300086523000865230008652300088F
:10013000652300086523000865230008910700086F
:100140008507000865230008950700086523000857
:10015000652300086523000865230008652300085F
:10016000652300086523000865230008652300084F
:1001700065230008652300086523000800000000CF
:10018000652300086523000865230008652300082F
:10019000652300086523000865230008652300081F
:1001A000652300086523000865230008652300080F
:1001B00065230008652300086523000865230008FF
:1001C000652300086523000800000000652300087F
:1001D00065230008652300086523000865230008DF
:1001E000A50700089907000865230008A90700086B
:1001F00065230008652300080348044B834202D0AE
:10020000034B03B118477047B80C0020B80C00200E
:10021000000000000548064B1B1AD90F01EBA30193
:10022000491002D0034B03B118477047B80C0020A7
:10023000B80C00200000000010B5064C237843B92C
:10024000FFF7DAFF044B13B10448AFF3008001233A
:10025000237010BDB80C002000000000E0E600088C
:1002600008B5054B1BB105490548AFF30080BDE853
:100270000840FFF7CFBF00BF00000000BC0C00200B
:10028000E0E60008A3F5803A704700BF174B002B4B
:1002900008BF134B9D46FFF7F5FF00218B460F4625
:1002A0001348144A121A0DF0A7F80E4B002B00D079
:1002B00098470D4B002B00D09847002000210400E8
:1002C0000D000D48002802D00C48AFF300800DF05F
:1002D000F7F82000290005F0F3FC0CF025FC00BF26
:1002E0000000080000000000891500080000082038
:1002F000B80C0020003E00200000000000000000BC
:10030000704710B50446502101F024F9204610BD75
:1003100037B50546044655F8043B9B689847284680
:1003200000F0C2F823688DED010A2046DB6898478B
:100330009DED010A03B030BD0346006818B9186886
:1003400008B9181D1860704708B50248FFF7F4FF98
:1003500008BD00BFD40C002008B50248FFF7ECFF31
:1003600008BD00BFD40C002073B50A4B05460A4EE9
:10037000044645F8043B30460191FFF7DDFF019943
:10038000284600F09FF83046FFF7D6FF204602B01F
:1003900070BD00BFACD90008D40C0020002070470D
:1003A0000368012200211B691847036800221B69AA
:1003B000114618476FF01500704703681B6918470E
:1003C00003689B69184703689B6A184700290CBF9C
:1003D0006FF0180000207047012070476FF0150083
:1003E00070476FF015007047704783681A6843685C
:1003F0001A4214BF012000207047002307B503767E
:100400000191009000F0EEFBDDE9000101F0FAFC43
:1004100000F0F2FB009803B05DF804FB07B5019013
:100420008DED000A00F0DEFB9DED000A019801F061
:10043000CBFD03B05DF804EB00F0DEBB037E10B52E
:1004400004461BB900F0A6FE0123237610BD07B5B4
:100450008DED010A009000F0C5FB0098FFF7EEFF5C
:100460009DED010A009801F0A7FB03B05DF804EBD5
:1004700000F0C2BB037E10B504461BB100F09EFE27
:100480000023237610BD07B5019000F0ABFB019867
:1004900001F08CFB0198FFF7EDFF00F0ADFB019838
:1004A00003B05DF804FB000008B500F083F807EE28
:1004B000900AB8EE670ADFED027A20EE270A08BD3F
:1004C000010880397FB5A1F1F00304460D469BB2C7
:1004D0000F2B39D93149284600F028FE2F492060DA
:1004E000284600F043FE2D490646284600F0DAFD76
:1004F00000234FF48032C6F38436A4F848502364B6
:100500002361A361E3602363636184F84A60C4E903
:1005100001230122C4E90833C4E90A33E2612368F4
:100520001F4A93421BD11F4B5A6C42F480725A648B
:100530005B6C03F480730193019B204601F02CFF58
:1005400050B3194800F0FAFB1849284600F0EEFDB8
:1005500016492060284600F009FE0646C8E7144AFE
:1005600093420ED002F580729342E6D10D4B5A6C45
:1005700042F480625A645B6C03F480630393039BD0
:10058000DBE7084B5A6C42F400725A645B6C03F46C
:1005900000730293029BD0E704B070BDBCD9000881
:1005A000002001400038024084E1000808DC000817
:1005B0000021014030B5012285B00446032300210B
:1005C00090F84A00CDE90123039112284FD8DFE8C3
:1005D00000F00A2628292B2D2F31333537393B3DA2
:1005E0003F4143484A000091224D694620466B68CE
:1005F00023F440036B6002F027F8204601F070FFFF
:100600000A21204601F0CCFF78BB204602F018F802
:1006100080B26B6823F440036B6005B030BD00927C
:10062000E2E702230093DFE70423FBE70523F9E772
:100630000623F7E70723F5E70823F3E70923F1E7A4
:100640000A23EFE70B23EDE70C23EBE70D23E9E7A4
:100650000E23E7E70F23E5E7074B009307230293F9
:10066000C2E71123F9E71223F7E70020D1E70020C2
:10067000D3E700BF002301401200001043692DE9B9
:10068000F0410D46D907044629D58768334E826864
:1006900007EA060C3248A368BE43324902EA000268
:1006A00003EA010301D10126A660824202D14FF480
:1006B0008070A0608B4202D14FF48031A160274945
:1006C0008C4505D026498A4202D0264A934206D15B
:1006D000254B0121254A1B6852F825009847E268FE
:1006E0006369920708D09F0706D51F4B00211F4A58
:1006F0001B6852F825009847A16962698E076369F3
:100700000AD5900508D5190406D5174B0521174AB7
:100710001B6852F825009847A769666917F0040717
:10072000626906F4806609D046B1120406D50E4B04
:1007300007210E4A1B6852F82500984763695FB18C
:1007400056B11B0408D5084B0221084A1B6852F811
:100750002500BDE8F0411847BDE8F0810300000422
:100760000003000800000310E80C0020DC0C00204F
:1007700000210148FFF782BF00640040FFF7F8BF87
:10078000FFF7F6BF01210148FFF778BF006800407E
:10079000FFF7F8BFFFF7F6BF02210148FFF76EBF72
:1007A00000340040FFF7F8BFFFF7F6BF4FF010032B
:1007B00000F00CB84FF0200300F008B84FF0300301
:1007C00000F004B84FF0400300F000B8EFF30880E9
:1007D0004FF0040172460A4201D0EFF309809C46B3
:1007E000254B196802680A60043142680A600431C6
:1007F00082680A600431C2680A600431F0C1474669
:100800000F6004314F460F60043157460F600431CA
:100810005F460F60043102690A60083142690A606C
:10082000043182690A600431C2690A6004310346F6
:1008300020334FF40076324200D0043375464FF037
:100840001006354200D148330C46103C2360EFF3CC
:1008500009820A600431EFF308820A6004317246AB
:100860000A600431EFF314820A606046024B196893
:1008700000F038FBFEE7000028E4000891FAA1F33D
:10088000B3FA83F391FAA1F130B55B000325B1FA15
:1008900081F1046805FA03F3490024EA03038A405E
:1008A0001343036030BD000000B5454B8DB00A28EE
:1008B00000F28380DFE800F006131E29343F4A551A
:1008C000606B76001A6B3F4842F001021A631B6BA3
:1008D00003F001030193019B0DB05DF804FB1A6B5B
:1008E000394842F002021A631B6B03F002030293C1
:1008F000029BF1E71A6B354842F004021A631B6B46
:1009000003F004030393039BE6E71A6B304842F0BD
:1009100008021A631B6B03F008030493049BDBE7D4
:100920001A6B2C4842F010021A631B6B03F0100381
:100930000593059BD0E71A6B274842F020021A6303
:100940001B6B03F020030693069BC5E71A6B234835
:1009500042F040021A631B6B03F040030793079BAE
:10096000BAE71A6B1E4842F080021A631B6B03F051
:1009700080030893089BAFE71A6B1A4842F4807211
:100980001A631B6B03F480730993099BA4E71A6B2A
:10099000154842F400721A631B6B03F400730A9348
:1009A0000A9B99E71A6B114842F480621A631B6B29
:1009B00003F480630B930B9B8EE70D4800F0BEF9A8
:1009C00000380240000002400004024000080240DB
:1009D000000C0240001002400014024000180240C7
:1009E000001C024000200240002402400028024077
:1009F0009AE1000810B504464FF4707101F000F858
:100A0000012004F00F04A04010BD00004B1C70B585
:100A100004460E46018216D0C1F30310FFF744FFCF
:100A200005463046FFF7E6FF238A074A03F00F0327
:100A30006561206052F82330A36105F11003183579
:100A40006360C4E9025570BDB4E40008B0F9100059
:100A500001F056B80A46D0E905010AB9FFF70EBF02
:100A60000122FBE708B503F06DFF002008BD000080
:100A700008B50A4B1B684BB100F078FF00F064FF2B
:100A80004FF47A7200230BF0D7FE08BD044B586A6E
:100A90004FF47A73B0FBF3F0F7E700BF840D00204A
:100AA000000C004003460122D3E84F0FC3E8412F5A
:100AB000C0B20029F8D17047D0E85F3F5B18C0E8AA
:100AC000523F002AF8D198B27047D0E85F3F5B1AD6
:100AD000C0E8523F002AF8D198B27047D0E84F3FA3
:100AE000C0E8421FD8B2704700B589B0144E154D0A
:100AF00000F078F8102101A800F078FA0424039B94
:100B00003046019A1A6000F03FFF019B049A30467C
:100B10001B04136000F038FF013CF0D10424039B58
:100B20002846019A1A6000F02FFF019B049A28467C
:100B30001B04136000F028FF013CF0D1DEE700BF8A
:100B4000F0490200801A060007B501460022019014
:100B5000022000F04BFC00F045F8019908460CF02B
:100B600035FD01990246022000F040FC03B05DF81B
:100B700004EB00F041B8000000B5A3B002460B46FC
:100B8000842101A80CF010FC832806D9074B1A68B1
:100B90001B79CDF883208DF88730002802DD01A86D
:100BA000FFF7D2FF23B05DF804FB00BFBBE10008F4
:100BB0000FB407B504A951F8040B0191FFF7DCFF4E
:100BC00003B05DF804EB04B07047EFF31080C0434E
:100BD00000F001007047EFF30580003818BF0120D6
:100BE0007047000008B500F013F8024A136801339B
:100BF000136008BDEC0C0020044A136823B1013BCC
:100C000013600BB900F016B8704700BFEC0C002061
:100C1000EFF3108372B6054A117831B9DB4304490A
:100C200003F001030B70012313707047F10C0020D7
:100C3000F00C0020034B00221A70034B1B7803B109
:100C400062B67047F10C0020F00C002008B50B488C
:100C5000FFF728FF28B1FFF7C5FFBFF34F8F20BF75
:100C6000FDE7FFF7B8FF08B1FFF73EFFFFF7ADFF65
:100C70000028F9D001200BF057FF00BF400D0020E5
:100C800070B51D4C90B00D46164634EA200428BFBE
:100C900004463422002103A80CF0AEFB0295CDE9F6
:100CA0000046FFF79FFF154A13680133012B1360BD
:100CB0000BD16D46124C0FCD0FC40FCD0FC40FCD0D
:100CC0000FC495E80F0084E80F006C460D4D0FCC63
:100CD0000FC50FCC0FC50FCC0FC594E80F0085E8EA
:100CE0000F00094B1B6813B1A5F130009847FFF7BF
:100CF00083FF002010B070BD0101FF80F40C0020C4
:100D0000000D0020440D0020F80C002030B50346F3
:100D100000F13C04084D002013F8012B80EA02602A
:100D2000082200284FEA4000B8BF6840013AF8D1D5
:100D3000A342F1D130BD00BFB71DC1040FB407B548
:100D400001210648CDF804E0FFF7C8FE019A0146EC
:100D500010B90348FFF794FFFFF778FFFC0C002061
:100D60000001FF80044601211D487646154608B55E
:100D7000FFF7B4FE20B9324629462046FFF780FF30
:100D80001848FFF7C3FF184B184CD3F8BC20154D7B
:100D9000824220460ABFD3F8B43001230133636393
:100DA0000023A363FFF7B2FFE063FFF71BFF0FCC45
:100DB0000FC50FCC0FC50FCC0FC594E80F0085E809
:100DC0000F00FFF719FFBFF34F8F0949094BCA689E
:100DD00002F4E0621343CB60BFF34F8F00BFFDE727
:100DE000FC0C002078020020F8010020440D0020B7
:100DF00000ED00E00400FA05F0B52C4E85B00024AB
:100E00002B4F35462146013456F8042B3846FFF760
:100E1000CFFE0D2CF6D1AB6C264C02936B6C2648A2
:100E200001932B6C0093696BD5E90E23FFF7C0FE8D
:100E300021682248FFF7BCFEE16AA26AA36AA06AA1
:100E4000D2B2266BC3F30723E76B000CCDE9016731
:100E500000901B48FFF7ACFEA36A1E0603D5616B2A
:100E60001848FFF7A5FEA36A180403D5A16B16481E
:100E7000FFF79EFEEB6C190712D51448FFF798FE9A
:100E80002B6DDA070FD51248FFF792FEEB6C5B076C
:100E90004CBF1048104805B0BDE8F040FFF788BED1
:100EA0000E48FFF785FE0E48EEE700BFF801002070
:100EB000C0E1000800ED00E0CEE100081DE20008FE
:100EC0002BE200087AE2000888E2000896E20008B7
:100ED000A5E20008D5E20008E1E20008C5E200084A
:100EE000B2E2000813B504461548FFF761FE302C46
:100EF00017D0402C1AD0202C1DD1124C1248FFF7CD
:100F000057FE1248FFF754FEFFF776FF1048FFF731
:100F10004FFE00230F4A204600930F49D26BFFF784
:100F200021FF0E480E4CFFF743FEEAE70D480E4C3A
:100F3000FFF73EFEE5E70D480D4CFFF739FEE0E711
:100F4000EDE200083E01FF8016E3000843E30008DD
:100F50004EE30008F80100206DE3000825E30008D7
:100F60003F01FF802EE300084001FF8039E30008C5
:100F70003D01FF8070B50E4604461546FFF746FD5D
:100F8000013609D020460021FFF764FD294620469E
:100F9000BDE87040FFF75ABD70BD38B504460D4638
:100FA00003685AB18268204601211360FFF752FDA1
:100FB00029462046BDE83840FFF748BDC2681B04FB
:100FC000F1E70022FFF7D6BF37B50D460446019280
:100FD000FFF71CFD013507D0019A0021204603B020
:100FE000BDE83040FFF7D9BF03B030BD0022FFF7A6
:100FF000EBBF0000294B5A69910370B515D45A69AB
:1010000012F4003211D1BFF34F8FBFF36F8FC3F8CB
:101010005022BFF34F8FBFF36F8F5A6942F40032F3
:101020005A61BFF34F8FBFF36F8F1C4B5A69D203C6
:1010300027D45A6912F4803223D1C3F88420BFF335
:101040004F8FD3F8802043F6E074C2F3C900C2F397
:101050004E32520102EA0406014646EA8175013920
:10106000C3F86052F9D2203A12F1200FF2D1BFF347
:101070004F8F5A6942F480325A61BFF34F8FBFF3EA
:101080006F8F03F00DFC01F06FF903F0FBFB03F031
:1010900007FC034B01221A6070BD00BF00ED00E0A9
:1010A000840D00201FB5431C10D105B05DF804FB72
:1010B00083420AD18968039000F0A2FC00210398C2
:1010C00005B05DF804EB00F01BBD0C31B1F9003048
:1010D0005A1CEDD100230246024819460093FFF73F
:1010E00041FE00BF30010180884207B502460AD0A8
:1010F000431C08D0013105D0002305481946009350
:10110000FFF730FE0146084603B05DF804FB00BF60
:1011100030010180B1F900305A1C01D118467047E6
:10112000834201D1486870470C31F3E7421C13B584
:1011300004460AD0FFF7EEFF431C06D100232246E7
:10114000034819460093FFF70DFE02B010BD00BF23
:1011500030010180B1F900305A1C01D118467047A6
:10116000834201D1886870470C31F3E7421C13B504
:1011700004460AD0FFF7EEFF431C06D100232246A7
:10118000034819460093FFF7EDFD02B010BD00BF04
:101190003001018013B5074C01212046FFF78CFC7C
:1011A000034628B90146009022880348FFF7DAFD7C
:1011B00002B010BD880D00202301048013B5094C36
:1011C00001212046FFF781FC4FF6FF73984206D1BC
:1011D00000232288044819460093FFF7C3FD02B09C
:1011E00010BD00BF880D0020240104806FF01C009A
:1011F00070476FF01500704701207047002070475E
:1012000070470000F8B515460C468F18054EBC42D5
:1012100005D014F8011B304601F058F8F7E72846CE
:10122000F8BD00BFE839002038B511F001048DB2D7
:1012300005D0084800F0D4FE041E18BF0124EB06B8
:1012400005D5044800F0DCFE08B144F01004204647
:1012500038BD00BFE839002010B504460BF07EFC15
:10126000204610BD10B50C462AB1044801F01CF808
:101270002070012010BD1046FCE700BFE8390020B7
:1012800038B51D46074B04460360074B1B6833B94E
:10129000064800F029FF2946044800F0EDFE2046EC
:1012A00038BD00BF34E40008180E0020E8390020E3
:1012B0000020704700207047074A08491368184407
:1012C000884283BF064B0C224FF0FF3010608CBF6A
:1012D0001A601846704700BFFC03002000FC07207E
:1012E000E0390020012070477047704708B5FFF7CC
:1012F000FBFF08BD08B5FFF7F8FF08BD037803F052
:101300000303012B09D0037803F00302012A04D060
:1013100043F00203037001207047002070470378F8
:1013200023F0030343F00103037070473F2870B5B7
:1013300004462FDC184D55F820305A1C13D10228D2
:1013400011DCFFF7B7FF034658B92046FFF7B0FF9F
:10135000034630B9114E3378BFF35B8FDB0704D5FA
:101360000F4B45F82430184670BD3046FFF7C6FFD6
:101370000028F5D04FF41653392238210848FFF7DA
:101380007FFF3046FFF7CBFF064A07490448FFF7C7
:10139000A9FFE5E70023E6E7FC0200208C0D002012
:1013A000900D0020F80200200112000838B5054613
:1013B0000024FFF7BBFF0B4B43F8254030B90CF07E
:1013C00079F8092303604FF0FF3038BD03685B698B
:1013D0009847051E04DA6D420CF06CF80560F2E7E0
:1013E0002046F2E7FC020020FFF7E0BF13B5CDE98D
:1013F0000021FFF79BFFDDE9002140B90CF05AF80E
:10140000092303604FF0FF34204602B010BD03688B
:10141000DB689847041EF7DA64420CF04BF804606E
:10142000F0E708B5131E07DA0CF044F81623036042
:101430004FF0FF33184608BDFCD0FFF7D7FF40EA56
:10144000E073F7E713B5CDE90021FFF76FFFDDE9A2
:10145000002140B90CF02EF8092303604FF0FF344F
:10146000204602B010BD03689B689847041EF7DA57
:1014700064420CF01FF80460F0E7002A08B503DBB3
:10148000BDE80840FFF7DEBF0CF014F81623036038
:101490004FF0FF3008BD13B5CDE90021FFF746FF3F
:1014A000DDE9002140B90CF005F8092303604FF095
:1014B000FF34204602B010BD03681B699847041E24
:1014C000F7DA64420BF0F6FF0460F0E7FFF7E3BFE2
:1014D00010B5FFF72BFF30B90BF0ECFF09230360C9
:1014E0004FF0FF3010BD03689B699847041E04DA73
:1014F00064420BF0DFFF0460F2E70020F2E7000037
:101500000A4D044608B52B6898680BF009FE2B6855
:10151000D8680BF005FE0120FFF7DAFF0220FFF785
:10152000D7FF0CB1FFF7E0FAFEE700BF540C002034
:101530001FB503900BF00AFB039A034620B901463E
:1015400000900348FFF70EFC05B05DF804FB00BFF8
:101550001F0101800BF002BB70470000084B0949D6
:1015600098684FF00053C21802F16042126843F8C5
:10157000042B8B42F7D1024B4FF000529A60704718
:1015800000ED00E0C801002008B5FFF7E7FFFFF716
:1015900031FD03F02DFAFFF7DFFF08BD2DE9F74F0E
:1015A0004468064694F83A10002955D10168496804
:1015B000884771680546096A81424DD0206A4FF01C
:1015C000000EE168281AA668256201403748864265
:1015D0008C4639D094F83BB00027A1FB0001D4E938
:1015E0000A5ABBF1000F46D0CBF1200820FA0BFCC1
:1015F000ABF1200E2D1801FA08F8ABF1200921FA01
:101600000EFE4AEB010A4CEA080CCBF120084CEA2A
:101610000E0C21FA0BFE0CFA09F90EFA0BF12CFA5A
:1016200008F80CFA0BF041EA09012B1A41EA08010B
:1016300000936AEB01030193DDE90023BB4208BF7D
:10164000B2420CD2C4E90A23D4E90C0110EB0C001D
:1016500041EB0E01C4E90C0103B0BDE8F08F1CF1B1
:10166000010C009B4EF1000E9A1B019B63EB0703DC
:10167000C4E90A23E8E732463B460BF0DDF812EBFB
:10168000050884468E4643EB0A09B94508BFB045B4
:1016900002D2C4E90A89D7E710F1010C41F1000E2A
:1016A000B8EB060269EB0703E2E700BF40420F0018
:1016B000824206D98A420BD9884294BF0020012079
:1016C0007047884206D98A428CBF002001207047AB
:1016D00001207047002070472DE9F74FD0F80480B3
:1016E000074698F83A30002B7ED198F83930002B15
:1016F0007AD1FFF753FF7E683A6873680192002B36
:1017000064D0D6E90C01D3E90023994208BF904286
:1017100005D3019B5B6903B0BDE8F04F1847141A6D
:10172000D6F8109063EB0105D6E90623AB4208BF5B
:10173000A24206D3B2682E4B9A4219D1A14528BFC6
:10174000A146326A019B9144F2681B6909EA0202D0
:101750001046019298473B685B689847019A01469A
:10176000D8F82000FFF7A4FF00283DD03B68D1E760
:1017700096F83B30EBB1A3F1200CC3F1200205FA3F
:1017800003F104FA03F004FA0CFC24FA02F2194CF7
:10179000002341EA0C0100194FF0000441EA020164
:1017A000134A44EB01010BF047F8814528BF8146FD
:1017B000C7E7A2FB04AB0F480021002302FB05BBD7
:1017C0001AEB00000A4A4BEB0101ECE7D8F81030A5
:1017D000D8F82000D8F80C201844019B10401B6951
:1017E00003B0BDE8F04F184703B0BDE8F08F00BF6D
:1017F00040420F003F420F00436893F838202DE924
:10180000F04F054685B0002A62D193F83A30002B9C
:101810005ED103681B6898472B68DB6998470368AB
:101820002BB91A4619462C480093FFF79BFA1F2143
:10183000012202FA01F45FFA81FAA34202D00139CF
:10184000F7D18A464668321F1C2A05D9002323484F
:101850001A4619460093E8E71C460727002320494B
:1018600014F1FF3807FA02F7224643F1FF39C1FBB2
:101870000789404649464FF000080AF0DDFF6B68D3
:101880002A688946834603935268C3E900889047D3
:101890000122039B002102FA06F6186200206B6801
:1018A000013EC3E90A01C3E90C019C60284683F8A4
:1018B0003BA01A8783F83A80C3E90367C3E906B9F6
:1018C000FFF76CFE284605B0BDE8F04FFFF704BFF8
:1018D00005B0BDE8F08F00BF0E0104800501048053
:1018E00040420F0070B50446FFF77CF92368DB68BF
:1018F0009847636893F83A201AB1BDE87040FFF743
:101900007BB9012283F8392063685B68A3B1204664
:10191000FFF744FE65686E68D5E90C01D6E900233F
:10192000994208BF904207D3F3686B602B68002B85
:10193000EAD0B0689847E7E763680022204683F85A
:101940003920FFF7C9FED8E738B50446FFF754FF42
:10195000FFF748F92046FFF721FE6368D3E90C45FD
:10196000FFF74AF92046294638BD704700487047BE
:1019700088E40008024B1B680BB102481847704707
:101980000004002088E40008034B596A5A6A521A7E
:101990008242FBD3704700BF000C004091FAA1F3D4
:1019A000B3FA83F391FAA1F130B55B000325B1FAE4
:1019B00081F1846805FA03F3490024EA03038A40AD
:1019C0001343836030BD91FAA1F3B3FA83F391FA24
:1019D000A1F130B55B000325B1FA81F1C46805FAC5
:1019E00003F3490024EA03038A401343C36030BD74
:1019F000012A02D0022A18BF0022FFF7E4BF00002C
:101A00002DE9F84300F00F02C1F383183B4B1FFA96
:101A100080F9C0F3031001F0070653F822700D4659
:101A2000FEF742FFB8F10F0F394604460CBF032200
:101A30004246FFF7B3FF022E2BD0032E5BD0711E60
:101A40004B424B4197FAA7F2B2FA82F20320216887
:101A5000013E5200012E00FA02F221EA020197FA39
:101A6000A7F2B2FA82F24FEA420203FA02F343EA21
:101A70000103236005D863682A074CBF3B43BB437F
:101A80006360C5F3011239462046BDE8F843FFF70D
:101A9000AFBF19F0080FC5F3832217D03B0A4FF0F0
:101AA0000F0C93FAA3F1B1FA81F1406A93FAA3F310
:101AB0008900B3FA83F30CFA01F19B0020EA0101DB
:101AC00002FA03F30B4363620223BBE797FAA7F121
:101AD000B1FA81F1036A0F20890000FA01F123EACB
:101AE000010197FAA7F3B3FA83F39B0002FA03F319
:101AF0000B432362E8E73346A4E700BFB4E40008E1
:101B000000F00F02C0F3031038B51E4B0C4653F81B
:101B10002250FEF7C9FE95FAA5F2B2FA82F30168E7
:101B20005A000323934095FAA5F2B2FA82F20B40D1
:101B30005200D340013B012B1AD8E31E022B43680D
:101B400009D82B43032C43601AD101222946BDE852
:101B50003840FFF74DBF23EA0503012C4360F4D062
:101B6000022C0BD029460022BDE83840FFF72BBFDE
:101B700004F0FD03012BE8D0052CF1D10222E5E7AA
:101B8000052CEEE7B4E400084B7D2BB1082807D8FC
:101B9000044B33F8100070470C2801D8024BF8E7CB
:101BA00000207047F4E4000806E500084FF4707167
:101BB000B0F90400FFF724BFB5EEC00A324BF0B510
:101BC000F1EE10FA076889B006461F603ED4F7EEC2
:101BD000007AB4EE670AF1EE10FA37FE800AD6ED0D
:101BE000037AB6EE006B6023327DF8EE677A0193DC
:101BF000B36827EE807AB7EEC77A37EE067BFCEE45
:101C0000C77B17EE904AC6ED047AB4FBF3F40023C9
:101C10000294039304930793CDE90533531E032BDA
:101C20001FD86FF00305314605EB82052846FFF704
:101C3000ABFF3B6A30EA03030BD02A4601A91248E6
:101C400002F08FF938B11148FFF778F89FED100ACC
:101C5000C5E745B97C63737D29460B488BB102F01B
:101C60007EF909B0F0BD042D01D1BC63F3E7082D66
:101C700001D1FC63EFE70C2D01D13C64EBE7FC657F
:101C8000E9E702F0FBF8ECE7D80D00207DE300085F
:101C900000000000C36893B190ED047A07EE903A1B
:101CA000B8EE477AF8EE677A87EE270AF7EE007A01
:101CB000B4EE670AF1EE10FA37FE800A70479FED26
:101CC000010A7047000000002DE9F041026800237E
:101CD000474C0E46054622602DED028B86B00093E0
:101CE000FFF7D8FF41F21113116AB0EE408A194292
:101CF00008D1116A40F24443194203D1136823F01A
:101D00000103136001A8694601F0ACFB28680022BA
:101D1000384BD1B2013253F831708742F9D110B942
:101D20003548FFF70BF803EBC1031B79002B3CD1BF
:101D300001F078FBDDF810C0009001230099AB6042
:101D400001FA03F02D4BB0FBF3F0B1FBF3F1BCF162
:101D5000000F30D14A1E771E4FF000084FF6FE7E6E
:101D600062603B46E760B3F5803F26D2B2F5803F24
:101D700023D2B8F1000F01D06260E36000231C4859
:101D80002361A36001F080FF48BBB0EE480A2846FB
:101D9000EE60FFF711FF2268136843F00103136040
:101DA00006B0BDEC028BBDE8F08101F04BFBDDF825
:101DB00014C00090C1E7421ECDE7AB685B00AB608A
:101DC000BCF1000F0DD101FB03F2013AB7FBF3F3B5
:101DD000734509D8B2F5803F06D36260E3600848D6
:101DE0009FE700FB03F2F0E74FF00108BBE700BFFD
:101DF000D80D002020E5000894E3000840420F00C1
:101E00007DE3000830B50D4604468DB06149284693
:101E1000FFF78CF95F4920602846FFF7A7F9C0F368
:101E200084335D4AC0F3C0402375236860759342D4
:101E300025D102F59C32516C41F001015164526C84
:101E400002F001020092009A544A934250D1544A3F
:101E5000516C41F002015164526C02F00202059291
:101E6000059A504A934250D14D4B1A6C42F0800271
:101E70001A641B6C03F080030A930A9B78E0B3F1A9
:101E8000804F20D0484A934228D0484A93424AD0B3
:101E9000474A9342D8D1424A116C41F0080111647B
:101EA000126C02F008020492049A424A9342D8D17A
:101EB0003B4B1A6C42F040021A641B6C03F0400367
:101EC0000993099B54E0364A116C41F001011164F9
:101ED000126C02F001020192019AB5E7304A116CCE
:101EE00041F002011164126C02F002020292029AA5
:101EF000314A934221D12A4A516C41F480315164D4
:101F0000526C02F480320692069A2C4A93422FD1E8
:101F1000234B1A6C42F480721A641B6C03F48073B6
:101F20000B930B9B24E01E4A116C41F004011164D9
:101F3000126C02F004020392039A214A93420DD0DC
:101F4000204A9342B1D1164B5A6C42F480225A6413
:101F50005B6C03F480230893089B09E0104B5A6CD8
:101F600042F400325A645B6C03F400330793079B1E
:101F700028460849FFF796F8002344F620612046DA
:101F8000A580C4E903330123A3600DB0BDE8304050
:101F9000FFF79ABE38DC0008000001400004014051
:101FA00000380240001C00400004004000080040CF
:101FB000000C00400018004000400140002000409C
:101FC0000044014000480140DFED047A20EE270A7A
:101FD000FDEEC07A17EE901AFFF776BE0024744922
:101FE000426870235343054AD358DA69120701D572
:101FF00008221A62D869C0F340107047343A0020B2
:10200000426870235343034AD358D869C0F3C010C1
:10201000704700BF343A002003464168702210B474
:102020004A431C681349545050189A684260DA6851
:1020300082601A69C2605A6902611A6A826100226A
:10204000A0F85220C261A0F85020A0F85A20A0F8B1
:102050005820B3F91A20013205D108235DF8044B4A
:10206000436102F024BBB3F9183001330CBF0423E1
:102070000C23F3E7343A00208160FFF7CDBF000066
:10208000184B98421FD0A3F54C4398421DD003F53E
:10209000806398421BD003F58063984219D003F502
:1020A0008063984217D003F54443984215D0A3F5B6
:1020B0001C43984213D003F58063984214BF4FF03D
:1020C000FF30072070470020704701207047022032
:1020D0007047032070470420704705207047062092
:1020E000704700BF00100140F0B50E46154689B09C
:1020F000044660493046FFF719F807465E4928460E
:10210000FFF714F801463846FEF7EEFF382E206040
:102110000AD0392D08D057493820FFF707F8B842C0
:1021200020D15648FEF70AFE01272068544B9842FA
:102130001AD103F594335A6C42F010025A645B6C66
:1021400003F010030093009B4E4B984269D14E4B15
:102150005A6C42F020025A645B6C03F02003059332
:10216000059B18E00027E0E7484B984244D003F570
:10217000806398424BD0464B984260D0454B984282
:10218000E2D1414B1A6C42F480121A641B6C03F4C6
:1021900080130493049BFFF773FF36496060304659
:1021A000FEF780FF28463449FEF77CFF701C03D001
:1021B00001213046FFF7A4FC691C03D00121284609
:1021C000FFF79EFC00234FF416522046268323621D
:1021D0006583C4E90223C4E90433FFF71DFF002F20
:1021E00045D02D4B012221462C481A604C2209B0C3
:1021F000BDE8F0400BF0DCB9234B1A6C42F400321E
:102200001A641B6C03F400330193019B9CE71E4B83
:102210001A6C42F480221A641B6C03F4802302932C
:10222000029B1F4B984214D1174B1A6C42F080420C
:102230001A641B6C03F080430693069BABE7124BBA
:102240001A6C42F400221A641B6C03F400230393FB
:10225000039B144B98429ED10B4B1A6C42F00042E8
:102260001A641B6C03F000430793079B93E709B0C4
:10227000F0BD00BF7CE0000874DF0008A9E300089F
:1022800000100140001401400038024000440040AA
:10229000004C004000500040180E0020E83900209B
:1022A00000780040007C004038B504464568204670
:1022B000FFF796FE0028FAD07023034A6B43D358E9
:1022C000586AC0F3080038BD343A002070B505469E
:1022D0000C4646682846FFF793FE0028FAD0702384
:1022E000034AC4F308047343D3589C6270BD00BF13
:1022F000343A00200368DA69520601D540221A6296
:1023000070470368DA69D20701D501221A62DA69D7
:10231000900701D502221A62DA69510701D5042219
:102320001A62DA69120701D508221A6270470000A2
:10233000DFF820D0002103E0074B5B584350043105
:102340000648074B42189A42F6D302F003FAFDF70B
:102350009DFF70470000082064E70008F802002095
:10236000B80C0020FEE7704708B5094B03201A6837
:1023700042F400721A601A6842F480721A6000F027
:10238000FFF90F20FEF76EFBFFF7EDFF002008BD01
:10239000003C02407047000010B50446002800F0E1
:1023A0009980036C23B9436480F83C30FFF7F2FF57
:1023B000236CDB0600F18C80236C23F4885323F01C
:1023C000020343F002032364434B5A6822F4403271
:1023D0005A605A6861680A435A60236821695A68DA
:1023E00022F480725A605A6842EA0122A1685A6057
:1023F0005A6822F040725A605A680A43E1685A608B
:102400009A6822F400629A609A680A4333499A6093
:10241000A26A8A4250D0996821F0706199609968E7
:102420000A43E16A9A609A6822F040529A609A6878
:102430000A439A609A68A16922F002029A609A6837
:1024400042EA41029A60226A002A3DD05A68616AD3
:1024500042F4006201395A605A6822F460425A60BC
:102460005A6842EA41325A600020DA6AE16922F48D
:1024700070020139DA62DA6A42EA0152216BDA62E9
:102480009A6822F400729A609A6842EA412261696D
:102490009A609A6822F480629A609A6842EA81227D
:1024A0009A606064236C23F0030343F00103236408
:1024B000002384F83C3010BD9A6822F070629A6064
:1024C0009A6822F04052B4E75A6822F40062CAE7E0
:1024D0000120EDE70120EEE7002301400100000F9D
:1024E000002382B0019390F83C30012B4ED00123A1
:1024F00080F83C3003689A68D10705D59A68D207FE
:1025000014D4002002B070479A68214942F00102B9
:102510009A60204A1268B2FBF1F202EB4202019289
:10252000019A002AEAD0019A013AF8E7026C22F4F3
:10253000E06222F0010242F4807202645A6851059E
:1025400005D5026C22F4405242F480520264026CBF
:1025500012F4805202D0426C22F006024264002241
:1025600080F83C206FF022021A600B4A5268D206B3
:1025700008D1986810F04050C3D19A6842F0804268
:102580009A60BFE7054A9342BBD1F2E70220B9E760
:1025900040420F00040400200023014000200140BD
:1025A00003689A6870B5560504460D460BD59B68BE
:1025B000D80508D5236C012043F0200323640023B1
:1025C00084F83C3070BDFEF753FA064623681A685B
:1025D00092070CD56FF012021A60226C42F400725E
:1025E00022649A6812F0405F13D00020EAE7691C69
:1025F000EDD045B9236C032043F00403236400238A
:1026000084F83C30DEE7FEF733FA801BA842DDD9C0
:10261000F0E7A269002AE8D1DA6A12F4700F02D05A
:102620009B685B05E1D4236C23F480732364206CE6
:1026300010F48050D9D1236C43F001032364C1E727
:102640000368D86C704700000023F7B5019390F839
:102650003C30012B6DD0012380F83C300C680368BE
:10266000092C8E68A5B238D905EB45024FF0070C4E
:10267000DF681E3A0CFA02FC27EA0C07DF603B4FCA
:10268000BC4225D1DA6842EA0662DA604968062966
:1026900001EB810231D8053A1F26596B964005FAA5
:1026A00002F221EA06015963596B0A435A63304A20
:1026B000934207D1122C3ED1D2F8043343F4800365
:1026C000C2F80433002380F83C30184603B0F0BD54
:1026D000DF6806FA02F23A43D7E704EB44024FF010
:1026E000070C1F690CFA02FC06FA02F227EA0C0733
:1026F0001F611F693A431A61C8E70C294FF01F0197
:102700000BD8233A1E6B914005FA02F226EA01012A
:102710001963196B0A431A63C9E7413ADE6A9140AB
:1027200005FA02F226EA0101D962D96A0A43DA629D
:10273000BDE70220CAE70D4B9C4201D0112CC1D14C
:102740000C499C424A6842F400024A60BAD10A4BE2
:102750000A4A1B68B3FBF2F20A2353430193019B1D
:10276000002BAFD0019B013BF8E700BF1200001027
:1027700000200140002301400404002040420F00DB
:1027800007490302CA6803F4E06322F4E06212041A
:10279000120C134343F0BF6343F40033CB60704724
:1027A00000ED00E0164B30B5DC68C4F30224C4F140
:1027B0000705231D042D28BF0425062B4FF0FF33EA
:1027C0008CBF033C002403FA05F5002803FA04F348
:1027D00021EA050122EA030201FA04F141EA0203B7
:1027E0004FEA0313DBB206DB00F1604000F5614005
:1027F00080F8003330BD00F00F00024A1354F9E7AF
:1028000000ED00E014ED00E0002808DB01234209A0
:1028100000F01F0003FA00F0014B43F8220070475C
:1028200000E100E000280DDB4309012200F01F0059
:10283000203302FA00F0044A42F82300BFF34F8F1E
:10284000BFF36F8F704700BF00E100E003680246EE
:102850001820D9B21039B1FBF0F010B5054C5F2942
:10286000205CD06523F47F7020F0030088BF043023
:10287000906510BD88E5000870B50446FEF7F8F8CD
:102880000546002C73D00023226884F834300223DC
:1028900084F83530136823F00103136021680B6856
:1028A000D8072FD40B68334DA0691D40D4E901230C
:1028B0001343E26813432269134362691343E269D5
:1028C00003431343226A1343626A042A43EA05035B
:1028D00002BFD4E90B5635432B43042A0B604B69E6
:1028E00023F0070343EA020333D1A26AE56A1343E4
:1028F0007DB390B9012A21D032F0020229D1EA0138
:1029000027D51EE0FEF7B4F8401B0528C6D92023C2
:102910000320636584F8350070BDB0F5005F14D105
:10292000032A16D801A050F822F000BF432900085E
:10293000FF280008432900083D290008B5F1C07FA1
:1029400007D1402301206365E4E7022AF9D9032A6D
:10295000D5D04B612046FFF779FFE26D3F239340CE
:10296000836000200123606584F83530D4E70120BE
:10297000D2E700BF3F8010E038B5054620B390F89D
:102980003530022BDCB21DD0036800241A6822F017
:1029900001021A6021221C605C609C60DC601C618A
:1029A0005A61FFF753FFEA6D3F23934083606C65E4
:1029B00085F8344085F83540C5E90F44C5E9114430
:1029C000C5E91344204638BD0124FBE770B590F8F3
:1029D0003440866D012C34D00124002580F8344029
:1029E00090F83540012C4FF0020428D180F8354092
:1029F00004684565256825F4802525606360836843
:102A0000402B19D1A260E160C26D3F239340B360B7
:102A1000236843F016032360636943F08003636116
:102A2000036C1BB1236843F0080323602368002074
:102A300043F00103236070BDA160E260E4E780F829
:102A400034500220F7E700000023F7B50193082275
:102A50005B4B0446856D1F68C36D2E689A403242F9
:102A60000CD001680868400708D5086820F0040009
:102A70000860AA60626D42F00102626501229A401C
:102A8000324208D021684969090604D5AA60626DFE
:102A900042F00202626504229A40324208D0216864
:102AA0000968880704D5AA60626D42F00402626575
:102AB00010229A40324210D02368196809070CD5B9
:102AC000AA601A68500337D51B68190301D4236C18
:102AD00000E0A36C0BB120469847E16D20228A40AC
:102AE00032423AD023681868C60636D5AA6094F8F0
:102AF0003520052A1A6827D122F016021A605A6971
:102B000022F080025A61226C0AB9A26C1AB11A68CA
:102B100022F008021A603F238B40AB60002384F848
:102B20003430012384F83530236D002B45D0204606
:102B300003B0BDE8F04018471A68D205C7D41A6838
:102B400022F008021A60C2E7500327D51B68190358
:102B500031D4636C0BB120469847636D6BB3636DE2
:102B6000DA0719D54FF416532268B7FBF3F705239C
:102B700084F83530136823F001031360019B01339F
:102B8000BB42019302D81368DB07F7D4002384F813
:102B90003430012384F83530E36CC6E71A6812F448
:102BA000807208D1196821F010011960012384F89E
:102BB000342084F83530E36BCCE703B0F0BD00BFC0
:102BC0000404002090F83500704700002DE9F04F14
:102BD000002385B0DFF8D081714ADFF8D09101275A
:102BE0000C689F4007EA040537EA040440F0BE8001
:102BF0004C6824F0100ABAF1020F16D14FEAD30E36
:102C000003F0070B4FF00F0C00EB8E0E4FEA8B0B0F
:102C1000DEF820600CFA0BFC26EA0C0C0E6906FAB2
:102C20000BF646EA0C06CEF820604FEA430E4FF052
:102C3000030CD0F800B00AF1FF3A0CFA0EFCBAF11E
:102C4000010F6FEA0C062BEA0C0B04F0030C019643
:102C50000CFA0EFC4CEA0B0CC0F800C015D8D0F8EA
:102C600008C006EA0C0CCE6806FA0EFA4AEA0C0C0A
:102C7000C0F808C0D0F804C02CEA0707C4F3001C51
:102C80000CFA03FC4CEA07074760C768019E37400F
:102C90008E6806FA0EF63E43C660E60066D5D8F8A2
:102CA000446023F0030703F0030C4FF00F0E46F4CB
:102CB000804607F180474FEA8C0CC8F8446007F55E
:102CC0009C37D8F8446006F480460396039E0EFABB
:102CD0000CF6D7F808A02AEA060E324EB0424CD0C5
:102CE00006F58066B0424AD006F58066B04248D00C
:102CF00006F58066B04246D006F58066B04244D004
:102D0000484544D006F50066B04242D006F58066DC
:102D1000B04240D006F58066B0423ED006F58066EF
:102D2000B0420CBF09260A2606FA0CF614F4803FBE
:102D300046EA0E06BE606FEA050716680CBF3E4005
:102D40002E4314F4003F166056680CBF3E402E43DD
:102D500014F4801F566096680CBF3E402E43A402B8
:102D60009660D66854BF3E402E43D6600133102B88
:102D70007FF435AF05B0BDE8F08F0026D4E701261B
:102D8000D2E70226D0E70326CEE70426CCE70526C5
:102D9000CAE70626C8E70726C6E70826C4E700BF35
:102DA000003C014000000240003802400014024094
:102DB0002DE9F04F00228E46DFF828914749DFF8D1
:102DC00028A1DFF828B14FF0010808FA02FC3CEA1C
:102DD0000E036BD1032302FA08F5046802F007061C
:102DE00003FA05F522FA03F7B60024EA050400EB1E
:102DF000870704603C6A23460F2404FA06F623EA98
:102E00000606374B3E629842866826EA05068660CB
:102E10006FEA0C06476827EA0C074760C76827EA8D
:102E2000050502F00307C56022F003054FEA870796
:102E300005F1804504FA07F405F59C35D5F808C07E
:102E400004EA0C0C37D003F58063984235D003F5C3
:102E50008063984233D003F58063984231D003F504
:102E6000806398422FD048452FD050452FD05845E9
:102E70002FD003F5805398422DD003F580639842FC
:102E80000CBF09230A23BB4063450FD1AB6823EA7B
:102E90000404AC600B6833400B604B6833404B60FC
:102EA0008B6833408B60CB681E40CE600132102AA5
:102EB00089D1BDE8F08F0023E5E74346E3E702232D
:102EC000E1E70323DFE70423DDE70523DBE7062350
:102ED000D9E70723D7E70823D5E700BF003C014027
:102EE000000002400014024000180240001C024092
:102EF000194B37B51A6C194C42F080521A641B6C8E
:102F000003F080530193019B236843F480332360D3
:102F1000FDF7AEFD05466368DA030CD523680F4D57
:102F200043F400332360FDF7A3FD04466B689B0365
:102F30000AD5002006E0FDF79BFD401BB0F57A7F27
:102F4000E9D9032003B030BDFDF792FD001BB0F5B9
:102F50007A7FEBD9F5E700BF0038024000700040EF
:102F60002DE9F341044618B9012002B0BDE8F08113
:102F70000368D80710D42368990761D42368190718
:102F800000F1A88023685A0700F1C980A269002ACD
:102F900040F032810020E8E7954B9A6802F00C027D
:102FA000042A07D09A6802F00C02082A0AD15A684B
:102FB000520207D58E4B1B689B03DCD56368002B40
:102FC000D9D1D1E76268B2F5803F11D11A6842F4D5
:102FD00080321A60FDF74CFD854E054633689F032D
:102FE000C9D4FDF745FD401BC828F7D90320BCE72D
:102FF0007F4D2B6892B923F480332B602B6823F428
:1030000080232B60FDF734FD06462B689803B2D56C
:10301000FDF72EFD801BC828F7D9E7E7B2F5A02FF2
:1030200007D143F480232B602B6843F480332B605B
:10303000D0E723F480332B602B6823F48023F6E75A
:103040006B4B9A6812F00C0F07D09A6802F00C02D2
:10305000082A12D15A6851020FD4654B1A68920798
:1030600003D5E268012A7FF47FAF1A68216922F054
:10307000F80242EAC1021A6080E7E268C2B11A6847
:103080005B4D42F001021A60FDF7F2FC06462B6828
:103090009F0707D52B68226923F0F80343EAC20390
:1030A0002B606BE7FDF7E4FC801B0228EFD99DE75E
:1030B0001A684F4E22F001021A60FDF7D9FC05464E
:1030C000336898077FF55AAFFDF7D2FC401B022802
:1030D000F6D98BE76369464D83B16B6F43F001030B
:1030E0006B67FDF7C5FC06466B6F9B073FF54AAF64
:1030F000FDF7BEFC801B0228F6D977E76B6F23F043
:1031000001036B67FDF7B4FC06466B6F9F077FF505
:1031100039AFFDF7ADFC801B0228F6D966E7344BCA
:103120001A6CD00027D41A6C012742F080521A641E
:103130001B6C03F080530193019B2E4D2B68D90526
:103140001BD5A3682A4D012B27D12B6F43F0010318
:103150002B6741F28838FDF78BFC254E0546336F0F
:103160009B073FD5002F3FF411AF214A136C23F08A
:10317000805313640AE70027DFE72B6843F480736A
:103180002B60FDF775FC06462B68DA05D9D4FDF7F0
:103190006FFC801B6428F7D928E7ABB92B6F41F28D
:1031A000883823F001032B672B6F23F004032B6770
:1031B000FDF75EFC06462B6F9807D3D5FDF758FC4C
:1031C000801B4045F7D911E7052B2B6F03D143F046
:1031D00004032B67B9E723F001032B672B6F23F060
:1031E0000403B5E7FDF744FC401B4045B7D9FDE6B5
:1031F0000038024000700040244DAB6803F00C031F
:10320000082B3FF4B1AE2B68022A23F080732B60A9
:103210002FD1FDF72DFC06462B68990123D4D4E964
:1032200007321343626A43EA8213E26A43EA0263A3
:10323000226B43EA0273A26A5208013A43EA02434C
:103240006B602B6843F080732B60FDF711FC0F4D12
:1032500004462B689A013FF59DAEFDF709FC001B63
:103260000228F6D9C2E6FDF703FC801B0228D3D959
:10327000BCE6FDF7FDFB04462B689B017FF58AAE9B
:10328000FDF7F6FB001B0228F6D9AFE60038024036
:10329000134908B58B6803F00C03042B1BD0082BD3
:1032A0001BD14A684B68496802F03F0213F480035F
:1032B000C1F388111ABF0B4800230B48A1FB000182
:1032C00009F0BAFA064B5B68C3F3014301335B00B4
:1032D000B0FBF3F008BD0348FCE70348FAE700BF82
:1032E0000038024000127A000024F4002DE9F04179
:1032F0000D46044610B90120BDE8F081454A136827
:1033000003F00F038B4227D3226897072FD4D007EF
:1033100043D4404A136803F00F03AB4266D82268D7
:1033200051076FD4130707D53B4A2169936823F4EB
:10333000604343EAC1039360FFF7AAFF364B374A65
:103340009B68C3F30313D35CD840354B18600F2040
:10335000FDF788FB0020CFE7136823F00F030B4332
:103360001360136803F00F038B42C4D1CCE712F053
:10337000040F294B03D0996841F4E0519960160776
:1033800003D5996841F4604199602349A0688B682E
:1033900023F0F00303438B60B9E761681E4B0129FA
:1033A0001A681BD112F4003FA5D09A6841F2883800
:1033B000194F22F003020A439A60FDF759FB0646B3
:1033C000BB68626803F00C03B3EB820FA1D0FDF77A
:1033D0004FFB801B4045F3D903208DE7022902D122
:1033E00012F0007FE0E712F0020FDDE7136823F030
:1033F0000F032B431360136803F00F03AB427FF4FA
:103400007AAF8CE70449E0688B6823F4E053034308
:103410008B6087E7003C024000380240A0E50008CE
:1034200004040020044B054A9B68C3F38223D35C49
:10343000034A1068D840704700380240B0E50008E1
:1034400004040020044B054A9B68C3F34233D35C59
:10345000034A1068D840704700380240B0E50008C1
:10346000040400200F2303600B4B9A6802F0030250
:1034700042609A6802F0F00282609A6802F4E052B8
:10348000C2609B68DB0803F4E0530361034B1B68D5
:1034900003F00F030B60704700380240003C02400D
:1034A00003682DE9F74313F0010604460BD0BA4A2E
:1034B000916821F400019160466B91683143B6FA3E
:1034C00086F67609916013F4002512D0B249E56BB7
:1034D000D1F88C20B5F5801F22F4401208BF0126D8
:1034E00042EA050216BFB5FA85F500256D09C1F857
:1034F0008C20D90210D5A848216CD0F88C20B1F5C9
:10350000800F22F4400242EA0102C0F88C2000F051
:10351000A881002908BF012513F0807F18BF01266C
:103520009A0631D59C4B9D4F1A6C42F080521A641A
:103530001B6C03F080530193019B3B6843F4807341
:103540003B60FDF795FA80463B68DB0540F18B81D7
:10355000914F3B6F13F4407340F09081236B03F461
:103560004072B2F5407F8C4A40F0AE81916823F002
:10357000704021F4F81120F4407001439160C3F3CE
:103580000B03116F0B4313672368DA060CD5824ACD
:10359000D2F88C1021F08071C2F88C10D2F88C1007
:1035A000A06B0143C2F88C105F0408D57A49606EA5
:1035B000D1F8902022F440320243C1F89020180440
:1035C00008D57549A06ED1F8902022F4402202431C
:1035D000C1F89020D90308D56F49E06ED1F890204A
:1035E00022F440120243C1F890209A0308D56A4998
:1035F000206FD1F8902022F440020243C1F89020BD
:103600005F0608D56449606CD1F8902022F003026F
:103610000243C1F89020180608D55F49A06CD1F884
:10362000902022F00C020243C1F89020D90508D561
:103630005949E06CD1F8902022F030020243C1F8E1
:1036400090209A0508D55449206DD1F8902022F099
:10365000C0020243C1F890205F0508D54E49606D55
:10366000D1F8902022F440720243C1F8902018054E
:1036700008D54949A06DD1F8902022F44062024358
:10368000C1F89020D90408D54349E06DD1F89020C5
:1036900022F440520243C1F890209A0408D53E49D2
:1036A000206ED1F8902022F440420243C1F89020CD
:1036B0005F0208D53849A06FD1F8902022F08062CF
:1036C0000243C1F8902098020CD53348E16FD0F83E
:1036D0009020B1F1006F22F0006208BF01250A437B
:1036E000C0F8902013F0080F18BF0125590308D522
:1036F0002949606FD1F8902022F040720243C1F84E
:1037000090201A0209D52449D4F88000D1F89020DD
:1037100022F080520243C1F890205F0109D51E4972
:10372000D4F88400D1F8902022F000520243C1F86E
:103730009020180109D51849D4F88800D1F88C20B8
:1037400022F000720243C1F88C20D90040F13E8182
:10375000114A012ED4F88C10D2F88C3023F08063FB
:1037600043EA0103C2F88C3000F0B280012D76D11B
:10377000094D2B682E4623F080532B60FDF778F916
:1037800007462B689B0000F12E812268150307D5A0
:10379000E36B4BB104E000BF003802400070004012
:1037A000D0021CD5236CD3B9D6F88830D6F888104F
:1037B00003F4403301F0E0410B43616943EA8113B4
:1037C000A16943EA0163C6F88830D6F88C30A16A53
:1037D00023F4F853013943EA0123C6F88C309102EF
:1037E00015D5E36FB3F1006F11D18649D1F8883058
:1037F000D1F8880003F0706300F0E0400343606993
:1038000043EA8013206A43EA0043C1F88830120774
:1038100019D57C4AD2F88810D2F8883001F070614E
:1038200003F440330B43616943EA8113E16943EADE
:103830000173C2F88830D2F88C30E16A23F4403347
:103840000B43C2F88C306F4C236843F080532360E5
:10385000FDF70EF9054623689B0040F1CB80002060
:1038600009E0012658E6FDF703F9A0EB08006428FB
:103870007FF66AAE032003B0BDE8F083226B02F44A
:1038800040729A423FF46AAE3B6F3A6F23F4407342
:1038900042F480323A673A6F22F480323A673B67EB
:1038A0003B6FD8077FF55AAEFDF7E2F841F2883951
:1038B00080463B6F99073FF551AEFDF7D9F8A0EB75
:1038C00008004845F5D9D5E7916821F4F81155E687
:1038D0004C4E336823F080633360FDF7C9F8074628
:1038E00033681A0178D42268D30712D5636B83B981
:1038F000D6F88430D6F8841003F4403301F07061B8
:103900000B43616843EA8113A16843EA0173C6F877
:103910008430170303D5E36BB3F5801F05D0D602BF
:103920001ED5236CB3F5800F1AD13649D1F88430F7
:10393000D1F8840003F4403300F0E04003436068B2
:1039400043EA8013E06843EA0063C1F88430D1F8A9
:103950008C00636A20F01F00013B0343C1F88C30E8
:10396000D00111D52749D1F88430D1F8840003F073
:10397000706300F0E0400343606843EA801320690D
:1039800043EA0043C1F8843091010DD52369626890
:103990001B0443EA8213E26843EA0263A26843EA33
:1039A0000273184AC2F88430164E336843F08063BD
:1039B0003360FDF75DF8074633681A013FF5D6AE70
:1039C000FDF756F8C01B6428F6D953E7012E3FF4E3
:1039D0007FAFB3F1007FC7E6FDF74AF8C01B64284C
:1039E0007FF67EAF46E7FDF743F8C01B64287FF6FD
:1039F000C8AE3FE7FDF73CF8401B64287FF62BAFCD
:103A000038E700BF003802405C4B03605C4BD3F8E2
:103A10008420C2F388124260D3F88420C2F30142AA
:103A20000261D3F88420C2F30362C260D3F8842019
:103A3000C2F302728260D3F88820C2F38812426116
:103A4000D3F88820C2F301420262D3F88820C2F37F
:103A500003628261D3F88820C2F30272C261D3F894
:103A60008C2002F01F024262D3F88C20C2F30422A1
:103A70008262D3F88C20C2F30142C262D3F88C2058
:103A800002F44012C263D3F88C2002F440020264B4
:103A90009A6802F400024263D3F8902002F44032A4
:103AA0004266D3F8902002F440228266D3F8902038
:103AB00002F44012C266D3F8902002F4400202677A
:103AC000D3F8902002F003024264D3F8902002F071
:103AD0000C028264D3F8902002F03002C264D3F862
:103AE000902002F0C0020265D3F8902002F44072E8
:103AF0004265D3F8902002F440628265D3F89020AA
:103B000002F44052C265D3F8902002F440420266AB
:103B1000D3F8902002F040724267D3F8902002F070
:103B200080628267D3F8902002F00062C267D3F807
:103B3000902002F08052C0F88020D3F8902002F04C
:103B40000052C0F88420D3F88C2002F00072C0F834
:103B50008820D3F88C2002F08062C0F88C2099680D
:103B60001A6F01F4F81102F440720A430263D3F8A9
:103B70008C3003F080738363704700BFF1FFFF1C3C
:103B80000038024070477047304A0368904212D0B4
:103B9000B0F1804F0FD0A2F57C4290420BD002F5DD
:103BA0008062904207D002F58062904203D002F515
:103BB0007842904219D14A6823F070031343234A94
:103BC000904229D0B0F1804F26D0A2F57C4290429D
:103BD00022D002F5806290421ED002F580629042AF
:103BE0001AD002F57842904216D0194A904213D06A
:103BF00002F5806290420FD002F5806290420BD0B5
:103C0000A2F59832904207D002F58062904203D02C
:103C100002F58062904203D123F44073CA681343D3
:103C20004A6923F08003134303608B68C3620B6807
:103C30008362064B984203D003F58063984201D11A
:103C40000B69036301234361704700BF000001401B
:103C50000040014010B50446A0B190F83D3003F09B
:103C6000FF021BB980F83C20FFF78CFF022320687D
:103C7000211D84F83D30FFF787FF0123002084F8E1
:103C80003D3010BD0120FCE710B50446A0B190F80E
:103C90003D3003F0FF021BB980F83C20FFF773FFB3
:103CA00002232068211D84F83D30FFF76DFF0123BA
:103CB000002084F83D3010BD0120FCE7036A23F0AA
:103CC000010370B50362036A4268846923F002034A
:103CD0000D6824F4803424F073042C438D682B4346
:103CE0000C4DA84203D005F58065A8420BD1CD68E4
:103CF00023F0080322F440722B43D1E9055623F048
:103D0000040335432A4342604A6884614263036284
:103D100070BD00BF00000140036A23F0100370B5BE
:103D20000362036A4268846923F020030D6824F06B
:103D3000807424F4E64444EA05248D6843EA0513BC
:103D40000D4DA84203D005F58065A8420DD1CD6880
:103D500023F0800322F4406243EA0513D1E90556BB
:103D600023F04003354342EA850242604A68846199
:103D70008263036270BD00BF00000140036A23F448
:103D8000807370B50362036A4268C46923F40073E8
:103D90000D6824F4803424F073042C438D6843EAC6
:103DA00005230D4DA84203D005F58065A8420DD12D
:103DB000CD6823F4006322F4405243EA0523D1E99D
:103DC000055623F48063354342EA051242604A688F
:103DD000C461C263036270BD00000140036A23F442
:103DE000805330B50362026A4468C36922F400520A
:103DF0000D6823F0807323F4E64343EA05238D68BE
:103E000042EA0532084DA84203D005F58065A84274
:103E100004D124F480444D6944EA85144460C361AC
:103E20004B680364026230BD0000014010B50124FC
:103E3000036A8C4002FA01F123EA04030362036A75
:103E40000B43036210BD000010B504460122006858
:103E5000FFF7ECFF2368084A934203D002F5806223
:103E6000934203D15A6C42F400425A641A6800200B
:103E700042F001021A6010BD00000140FFF7E4BFEC
:103E800010B50424036A8C4002FA01F123EA04030A
:103E90000362036A0B43036210BD0000036A23F44C
:103EA000803330B50362026A4468436D22F4003205
:103EB0000D6823F4803323F070032B438D6842EAAE
:103EC0000542094DA84203D005F58065A84204D1FA
:103ED00024F480344D6944EA0524446043654B680A
:103EE0008365026230BD00BF00000140036A23F415
:103EF000801330B50362026A4468436D22F40012F5
:103F00000D6823F0807323F4E04343EA05238D68B2
:103F100042EA0552084DA84203D005F58065A84243
:103F200004D124F480244D6944EA85244460436527
:103F30004B68C365026230BD0000014010B5044605
:103F400004220068FFF79CFF236800205A6C42F4AB
:103F500000425A641A6842F001021A6010BDFFF76D
:103F6000EDBF38B590F83C3004460D460220012BD9
:103F700012D001230C2A84F83D0084F83C3054D040
:103F80000BD8042A2FD0082A3ED0DAB10123002012
:103F900084F83D3084F83C0038BD102A56D0142AED
:103FA000F4D12068FFF7A2FF236809695A6D42F433
:103FB00000625A655A6D22F480625A655A6D42EA6F
:103FC000012252E02068FFF779FE236829699A6987
:103FD00042F008029A619A6922F004029A619A6991
:103FE0000A439A61D2E72068FFF796FE23682969A1
:103FF0009A6942F400629A619A6922F480629A6135
:104000009A6942EA0122ECE72068FFF7B7FE2368CD
:104010002969DA6942F00802DA61DA6922F00402F9
:10402000DA61DA690A43DA61B0E72068FFF7D6FEA1
:1040300023682969DA6942F40062DA61DA6922F4F4
:104040008062DA61DA6942EA0122ECE72068FFF770
:1040500025FF236809695A6D42F008025A655A6DB6
:1040600022F004025A655A6D0A435A658EE70368C6
:104070001A6822F490721A609A6822F001029A601B
:10408000202380F86A3070477047704738B505467E
:10409000B0B12423002480F8693003681A6822F044
:1040A00001021A601C605C609C60FFF7EEFF204616
:1040B000EC6685F8684085F8694085F86A4038BD47
:1040C0000120FCE738B50446134694F86920202AFD
:1040D0002BD141B33BB394F86820012A25D00122AB
:1040E0000025A4F8523084F868202122E566206E6D
:1040F00084F869200E4AA4F85030E164C2630D4A86
:1041000002640D4AC0E9132522682832FEF75EFCDE
:104110002368402228461A6284F868509A6842F060
:1041200080029A6038BD0120FCE70220FAE700BF58
:104130002742000857420008A942000870B590F8CD
:104140006A300446202B32D179B372B390F86830CC
:10415000012B2CD001230025416580F868302223F3
:10416000A0F85820C56680F86A30406E114B26686A
:10417000C363114B0364114BC0E9133513460A4660
:1041800006F12401FEF722FC236884F868502846D3
:104190001A6842F480721A609A6842F001029A60CA
:1041A0009A6842F040029A6070BD0120FCE702204C
:1041B000FAE700BF634200089F420008A9420008D6
:1041C0002DE9F041DDF8188004460E4615461F46DD
:1041D0002268D36936EA03030CBF01230023AB42F4
:1041E00001D0002017E0B8F1FF3FF2D0B8F1000F86
:1041F00013D1236803201A6822F4D0721A609A68D7
:1042000022F001029A60202384F8693084F86A3031
:10421000002384F86830BDE8F081FCF729FCC01B5E
:104220004045D5D3E5E708B50368826B1B6813F4F6
:1042300080730BD1A2F8523013689A6822F0800282
:104240009A601A6842F040021A6008BD1046FEF7F4
:1042500051F8FAE77047806B08B5FFF7FBFF08BD20
:10426000704708B50346806B1B681B6813F48073A6
:1042700011D1A0F85A3003681A6822F480721A60CB
:104280009A6822F001029A609A6822F040029A60CD
:10429000202380F86A30FFF7E3FF08BD7047806B8A
:1042A00008B5FFF7FBFF08BD08B5806B0023A0F839
:1042B0005A30A0F8523090F86930212B0AD10368A7
:1042C0009A68120606D51A6822F0C0021A602023E6
:1042D00080F8693090F86A30222B05D103689B681A
:1042E0005B0601D5FFF7C3FEC36E43F01003C36640
:1042F000FEF707F808BD90F8692090F86A001043AF
:104300007047000038B5C2690446036881680069D7
:104310001D680143606901439E4811432840256A96
:104320000143E0681960596821F440510143596024
:10433000A1699868294320F4306001439960964947
:104340008B421DD101F59431D1F8901001F0030199
:104350000139022900F2FF809048B2F5004F415C1C
:1043600040F0AB80082900F2A580DFE811F0E20000
:10437000F700FD00A3000901A300A300A300320081
:1043800087498B4207D101F5FA318648D1F8901060
:1043900001F00C01E1E784498B421FD101F5F831AE
:1043A000D1F8901001F03001202900F0DA800AD80D
:1043B000002900F0BB80102900F0DF80B2F5004F2B
:1043C00078D00120C6E03029F8D1B2F5004F40F096
:1043D000A8806268530803F58033CBE073498B42B1
:1043E00010D101F5F631D1F8901001F0C00180290B
:1043F00000F0B78004D8002900F098804029DBE75E
:10440000C029E1E76A498B4213D101F5F431D1F8B3
:10441000901001F44071B1F5007F00F0A28005D842
:10442000002900F08380B1F5807FC5E7B1F5407FBA
:10443000CAE760498B4213D101F59231D1F890104F
:1044400001F44061B1F5006F00F08B8005D80029C0
:1044500000F08180B1F5806FAEE7B1F5406FB3E752
:1044600055498B4211D101F5E031D1F8901001F49A
:104470004051B1F5005F74D004D8002956D0B1F591
:10448000805F99E7B1F5405F9EE74C498B4295D13B
:1044900001F5DE31D1F8901001F44041B1F5004F43
:1044A0005FD004D8002941D0B1F5804F84E7B1F541
:1044B000404F89E70120002345E0082981D801A267
:1044C00052F821F0E94400080145000807450008BA
:1044D000C34300081D450008C3430008C343000848
:1044E000C343000823450008FEF79CFFD4E90023DE
:1044F00000EB5300B0FBF3F080B2D060002029E065
:10450000FEF7A0FFF2E761684A0802F5740202F5BF
:104510001052B2FBF1F292B2DA60EFE7FEF7B8FEAA
:10452000E4E761684A0802F50042F2E7B2F5004F9D
:10453000DAD1FEF777FF63685A0802EB4000B0FB60
:10454000F3F39BB2002023F00F02C3F34203216870
:104550001343CB6038BDB2F5004FD1D1FEF772FFE7
:10456000E9E7B2F5004FCED16268530803F1F47366
:1045700003F59043B3FBF2F3E3E7B2F5004FCDD17F
:10458000FEF786FE61684A0802EB4003B3FBF1F3D5
:10459000D7E700BFF369FFEF0010014090E5000886
:1045A0000044004093E5000800480040004C0040F3
:1045B000005000400014014000780040007C0040A2
:1045C000436ADA0710B506D50168846A4A6822F49E
:1045D000003222434A609C0706D50168C46A4A68D3
:1045E00022F4803222434A60590706D50168046BE1
:1045F0004A6822F4802222434A601A0706D50168DD
:10460000446B4A6822F4004222434A60DC0606D525
:104610000168846B8A6822F4805222438A6099067A
:1046200006D50168C46B8A6822F4005222438A606E
:104630005A0610D50168046C4A68B4F5801F22F44C
:10464000801242EA04024A6005D14A68446C22F4AE
:10465000C00222434A601B0606D50268816C53687B
:1046600023F400230B43536010BD37B500250446E7
:10467000C566FCF7FDF9226803461268120709D4E3
:104680002023002084F8693084F8680084F86A30B8
:1046900003B030BD6FF07E424FF40011204600920F
:1046A0002A46FFF78DFD0028EAD00320F0E710B579
:1046B000044660B390F8693003F0FF021BB980F83C
:1046C0006820FFF7E1FC22682423204684F8693043
:1046D000136823F001031360FFF714FE012816D0BE
:1046E000636A13B12046FFF76BFF236820465A68C0
:1046F00022F490425A609A6822F02A029A601A685C
:1047000042F00102BDE810401A60FFF7AEBF012081
:1047100010BD10B50223AAB00F220024072101A862
:10472000CDE901234FF4A053CDE903434FF4805367
:104730000593FEF7DBFD58B94FF40013259006A84A
:104740000693FEF7ADFEB0FA80F040092AB010BD26
:104750002046FBE70E490020D1F8883043F470036F
:10476000C1F888300B4B1A6842F001021A60986059
:104770001A6822F0847222F480321A60064A5A6063
:104780001A6822F480221A60D860044B8B6070474C
:1047900000ED00E000380240103000240000000866
:1047A0001E4B00284FF004011A6C42F0805200B5F5
:1047B0001A6491B01B6C03A803F080530193019B12
:1047C000174B1A6842F440421A604FF480021B688B
:1047D00003F440430293029B4FF0010303930CBF89
:1047E0004FF480334FF4A02304930223CDE9093220
:1047F000D8220D93CDE90B120922CDE90E23FEF745
:10480000AFFB18B1002011B05DF804FBFEF770FBA0
:104810000028F7D1FFF77DFFF5E700BF0038024021
:1048200000700040164B082010211A6C42F0805294
:1048300000B51A648FB01B6C0122059103F0805300
:10484000049200220093009B0223029201930B9397
:10485000CDE90732D822CDE90902092201A8CDE924
:104860000C23FEF77DFB18B100200FB05DF804FBB0
:10487000FEF73EFB0028F7D1FFF74BFFF5E700BF3F
:104880000038024008B50120FFF78AFF28B9FFF77A
:10489000C9FF10B90148FCF751FA08BDDEE3000872
:1048A000174A1849936803F00C03042B10B50DD078
:1048B000082B0DD0144B0B60114B144A9B68C3F3AB
:1048C0000313D25C0B68D3400B6010BD104BF2E7B2
:1048D000546850686302526800F03F0048BF0C4BB8
:1048E000C2F3881258BF084BB3FBF0F35343044A9A
:1048F0005268C2F3014201325200B3FBF2F3DAE72D
:1049000000380240040400200024F400A0E5000860
:1049100000127A00074B084A13601A69910707D5FD
:10492000DA68920704D56FF002021A61FDF722B827
:10493000704700BF000C0040B43D002000487047A5
:10494000B8E5000830B589B0234C01A903A8FEF7EB
:1049500089FDFEF767FD214B01901A6C42F00802B9
:104960001A641A6C02F008020292029A1A6A42F061
:1049700008021A621A6A22F008021A62A3F50B33BF
:10498000069A23604FF0FF33E360154B0ABB002506
:10499000B0FBF3F001382561A56060600E48C4E902
:1049A0000555FFF757F90F4B0F4A9B68C3F80821CD
:1049B000BFF34F8F0D4B4FF480225A6006482946B3
:1049C000FFF742FA2268D36823F00203D36009B0EC
:1049D00030BD4000DBE700BFB43D0020003802409E
:1049E00040420F0000ED00E01549000800E100E042
:1049F000044800210268D36823F00203D360FFF764
:104A000023BA00BFB43D0020014B586A704700BF75
:104A1000000C0040054B6FF002021B6858631A61DE
:104A2000DA6842F00202DA60704700BFB43D00204D
:104A3000064B6FF002021B681A615A6942F00202CB
:104A40005A61DA6842F00202DA607047B43D002031
:104A5000034B1A68D36823F00203D360704700BF8A
:104A6000B43D0020024B6FF002021B681A617047D0
:104A7000B43D002010B584B001902949019A134635
:104A80005B0013449B000B4408331B78002B2DD193
:104A90005020FCF74DFD03461C462149019A134660
:104AA0005B0013449B000B44B3F9003019462046C9
:104AB000FBF75AFC1A49019A13465B0013449B000A
:104AC0000B4404331C601649019A13465B001344DF
:104AD0009B000B44083303221A70019A13465B00B3
:104AE00013449B000E4A1344039315E00C49019AAA
:104AF00013465B0013449B000B4408331B78032BC5
:104B000008D1019A13465B0013449B00044A1344E6
:104B1000039301E000230393039B184604B010BDE8
:104B20005004002084B003900B4601928DF80B30A6
:104B300000BF04B0704700B589B0039002911346DE
:104B40008DF80730039B0593059B002B0BD0059B2D
:104B50005B681846FBF7DCFBF0EE407AB7EEE77ACD
:104B60008DED067B05E04FF000024FF00003CDE92C
:104B700006230299DDE90623C1E9002300BF09B03D
:104B80005DF804FB82B0019000BF02B0704782B0B4
:104B9000019000BF02B0704700B585B00190019B45
:104BA0000393039B002B0ED0039B5B68002B04D068
:104BB0001A680432126818469047039B00225A6014
:104BC000039B00221A7200BF05B05DF804FB82B09F
:104BD0000190019B5B681A68019B1B681340002BC6
:104BE00001D0012300E00023184602B0704700B551
:104BF00083B001900B46ADF80230019B1A460023AA
:104C0000136053609360D360136153619361019BA0
:104C1000BDF9022011461846FCF7D3F9019B18464E
:104C200003B05DF804FB00B583B00190019B18460A
:104C3000FFF7CDFF0346184603B05DF804FB00B54F
:104C400083B001900B46ADF80230019B1A46002359
:104C5000136053609360D360136153619361019B50
:104C6000BDF9022011461846FCF7C0F9019B184611
:104C700003B05DF804FB000010B584B001900B4652
:104C80008DF80330002303935849019A13465B00C3
:104C900013449B000B4408331B78002B5BD19DF819
:104CA0000330002B25D11C20FCF742FC03461C4698
:104CB0004E49019A13465B0013449B000B44B3F921
:104CC000003019462046FFF792FF4849019A1346E3
:104CD0005B0013449B000B4404331C604349019A5E
:104CE00013465B0013449B000B44083301221A70E7
:104CF00028E09DF80330012B24D11C20FCF718FC80
:104D000003461C463949019A13465B0013449B0035
:104D10000B44B3F9003019462046FFF790FF3349A2
:104D2000019A13465B0013449B000B4404331C6040
:104D30002E49019A13465B0013449B000B44083331
:104D400002221A70019A13465B0013449B00274A03
:104D50001344039345E02549019A13465B0013442D
:104D60009B000B4408331B78012B0CD19DF80330BA
:104D7000002B08D1019A13465B0013449B001B4A89
:104D8000134403932DE01949019A13465B00134421
:104D90009B000B4408331B78022B0CD19DF8033089
:104DA000012B08D1019A13465B0013449B000F4A64
:104DB0001344039315E00D49019A13465B00134415
:104DC0009B000B4408331B780A2B08D1019A134629
:104DD0005B0013449B00054A1344039301E0002346
:104DE0000393039B184604B010BD00BF500400207D
:104DF00000B585B00190019B0293029B002B15D05A
:104E0000029B1B7A0A2B08D1029B5B681846FBF7B2
:104E1000ECFA03468DF80F300BE0029B5B681846F6
:104E2000FFF701FF03468DF80F3002E000238DF8F5
:104E30000F309DF80F30184605B05DF804FB00B543
:104E400085B00190019B0393039B1B7A022B0BD12E
:104E5000039B5B68002B03D01C211846FCF77AFBF0
:104E6000039B00221A720EE0039B1B7A012B0AD1CE
:104E7000039B5B68002B03D01C211846FCF76AFBE0
:104E8000039B00221A7200BF05B05DF804FB00B559
:104E900083B001900B46ADF80230019BBDF90220B2
:104EA00011461846FBF7A9FA019B184603B05DF8B6
:104EB00004FB00B583B00190019B1846FCF776FE19
:104EC000019B1846FBF7DFFA019B184603B05DF81B
:104ED00004FB00000000000010B588B005908DEDC7
:104EE000020B8DED001B4249059A13465B001344EB
:104EF0009B000B4408331B78002B59D11C20FCF776
:104F000017FB03461C463A49059A13465B001344B7
:104F10009B000B44B3F9003019462046FFF7B7FF5A
:104F20003349059A13465B0013449B000B4404333A
:104F30001C602F49059A13465B0013449B000B44E9
:104F400004331B68B7EE005B9DED026B85EE067BBC
:104F5000F7EEC77BB0EE670A1846FBF75FFA244905
:104F6000059A13465B0013449B000B4404331B68F3
:104F70009DED006B9FED1C5B86EE057BF7EEC77B1E
:104F8000B0EE670A1846FBF762FA1949059A13460C
:104F90005B0013449B000B44083304221A70059AEB
:104FA00013465B0013449B00114A1344079315E01A
:104FB0000F49059A13465B0013449B000B440833CA
:104FC0001B78042B08D1059A13465B0013449B0001
:104FD000074A1344079301E000230793079B1846F1
:104FE00008B010BDAFF30080000000000000594081
:104FF0005004002082B0019000BF02B07047000052
:1050000000B587B003908DED000B039B0593059BC6
:10501000002B12D0059B1B7A042B0ED1059B5B68DD
:105020009DED006B9FED085B86EE057BF7EEC77B81
:10503000B0EE670A1846FBF70AFA00BF07B05DF842
:1050400004FB00BFAFF300800000000000005940E7
:1050500010B584B00190019B0393039B002B14D0E7
:10506000039B1B7A042B10D1039B5C68002C06D099
:105070002046FFF71EFF1C212046FCF76BFA039B1E
:1050800000221A72039B00225A6000BF04B010BDB8
:1050900082B0019000BF02B0704784B001900091CF
:1050A00000238DF80F309DF90F30184604B070477B
:1050B00000B585B00190009100238DF80B30019B65
:1050C000002B02D14FF0FF3356E0009B002B02D1A2
:1050D0004FF0FF3350E02A4B93ED007BB8EE006BAE
:1050E000B4EE467BF1EE10FA06D1009BD3E9002323
:1050F0002349C1E9002305E0214BD3E900230099AE
:10510000C1E900231E4BD3E90023019B5B681B68A8
:105110001C4A1360019B5B685B681B4A1360019B20
:105120005B689B68194A1360019B5B68DB68184ADF
:105130001360184B00221A6001F0A0FA00230393B9
:105140000023039307E0144A039B144942F82310F9
:10515000039B01330393039B012BF4D900F004FF5D
:1051600003468DF80B309DF90B30002B02D10C4B10
:1051700001221A709DF90B30184605B05DF804FB4A
:1051800008040020980F00209C0F0020A00F002092
:10519000A40F0020A80F00201C0E0020D9660008D4
:1051A000950F002000B587B0019000238DF81730CF
:1051B0000023049300238DF80F302E4B1B78DBB2B5
:1051C000002B0CBF01230023DBB28DF80E302A4BDD
:1051D00002221A70019B002B0BD1264B1B78DBB2ED
:1051E000002B06D1254B1B78DBB2002B01D101230C
:1051F00000E000238DF80F3017E00A2006F0E2FAF5
:10520000049A42F2107313440493019BB3F1FF3FDD
:1052100005D0049A019B9A4201D9012300E00023A2
:105220008DF80F30002000F0E5FE124B1B78DBB24A
:10523000002B08D1114B1B78DBB2002B03D19DF85A
:105240000F30002BD9D00C4B03221A709DF80F3071
:10525000002B02D09C238DF817309DF80E30002BC8
:1052600001D001F033FB9DF91730184607B05DF807
:1052700004FB00BF930F0020950F0020940F002027
:1052800000B587B003468DED000BADF80E3000235E
:105290008DF8173001238DF816309DED007BB5EEAB
:1052A000C07BF1EE10FA02D54FF0FF3352E0BDF8AB
:1052B0000E30FF2B02D94FF0FF334BE0274B1B780A
:1052C000DBB2032B04D0254B1B78DBB2012B02D1C0
:1052D000224B04221A70BDF80E30012B1BD8BDF8EA
:1052E0000E301F4A52F82330002B14D001F062FE1A
:1052F00003468DF815309DF81530022B0BD1BDF803
:105300000E30174A52F82330BDF80E201046984749
:1053100003468DF81630BDF80E30ADF81230BDF8EA
:105320000E3018469DED000B00F096FD9DF81630EE
:10533000002B08D0BDF81230184601F015FE0346C8
:105340008DF8173004E0BDF81230184601F05DFE0C
:105350009DF91730184607B05DF804FB950F002043
:105360001C0E002000B583B000238DF8073000200C
:1053700000F040FE03468DF807309DF907301846CF
:1053800003B05DF804FB000000B583B000238DF886
:1053900007300C4B06221A7000F0C8FE03468DF849
:1053A000073008220021084808F026F801F018FA12
:1053B000044B00221A709DF90730184603B05DF8BF
:1053C00004FB00BF950F00201C0E0020024B1B7831
:1053D000DBB21846704700BF940F0020024B1B78C9
:1053E000DBB21846704700BFAC0F00200000000081
:1053F00008B5A74BDB6C1846FFF7C4FBA44BDB6C6E
:105400000722A4491846FFF796FBA14BDB6B184611
:10541000FFF7B8FB9E4BDB6B07229F491846FFF74F
:105420008AFB9B4BDB6A1846FFF7ACFB984BDB6AA9
:1054300007229A491846FFF77EFB954BDB69184611
:10544000FFF7A0FB924BDB69072295491846FFF74F
:1054500072FB8F4BDB681846FFF794FB8C4BDB68C5
:10546000072290491846FFF766FB894BDB6D18460B
:10547000FFF7BEFC03461A468B4B83F838208A4B55
:1054800093F83830002B05D081494FF00002874B4C
:10549000C1E9242384494FF000024FF00003C1E921
:1054A000002381494FF000024FF00003C1E90223BD
:1054B000774B93ED247BB7EE006BB4EE467BF1EEB9
:1054C00010FA40F05C81724B93ED227BB5EE407B8D
:1054D000F1EE10FA3ED16E4B93ED207B9FED686BA1
:1054E000B4EEC67BF1EE10FA07D56F494FF000021B
:1054F0004FF00003C1E9022337E1654B93ED207BB8
:105500009FED616BB4EEC67BF1EE10FA06D56649ED
:105510004FF00002664BC1E9022326E162494FF0D9
:1055200000024FF00003C1E9022359494FF0000285
:105530005E4BC1E9222356494FF000024FF00003B1
:10554000C1E9202352494FF000024FF00003C1E9A6
:1055500024230AE14E4B93ED227BB7EE006BB4EEB1
:10556000467BF1EE10FA3FD1494B93ED207B9FED46
:10557000446BB4EEC67BF1EE10FA07D54A494FF002
:1055800000024FF00003C1E90223EEE0404B93ED2F
:10559000207B9FED3D6BB4EEC67BF1EE10FA06D595
:1055A00041494FF00002434BC1E90223DDE03E498F
:1055B0004FF000024FF00003C1E9022334494FF0DD
:1055C00000024FF08043C1E9222331494FF000022D
:1055D0004FF00003C1E920232D494FF000024FF0A6
:1055E0000003C1E92423C0E0294B93ED227BB0EEF8
:1055F000006BB4EE467BF1EE10FA5FD1244B93EDD5
:10560000207B9FED1F6BB4EEC67BF1EE10FA07D541
:1056100025494FF000024FF00003C1E90023A4E048
:105620001B4B93ED207B9FED186BB4EEC67BF1EE28
:1056300010FA06D51C494FF000021D4BC1E90023AA
:1056400093E019494FF000024FF00003C1E9002335
:105650000F494FF00002184BC1E922230C494FF0CB
:1056600000024FF00003C1E9202309494FF0000276
:105670004FF00003C1E9242377E000BFAFF30080BF
:105680000000000000006940000000000000994098
:10569000680E0020580E0020500E0020480E0020FA
:1056A000400E0020380E0020280E00200000F03FA1
:1056B00000002440000024C000000840584B93ED37
:1056C000227BB0EE086BB4EE467BF1EE10FA3ED1D1
:1056D000534B93ED207B9FED466BB4EEC67BF1EE12
:1056E00010FA07D54F494FF000024FF00003C1E90F
:1056F00000233AE04A4B93ED207B9FED3F6BB4EEE5
:10570000C67BF1EE10FA06D546494FF00002464B33
:10571000C1E9002329E043494FF000024FF00003A4
:10572000C1E900233E494FF00002404BC1E922236A
:105730003B494FF000024FF00003C1E920233849F4
:105740004FF000024FF00003C1E924230DE035497A
:105750004FF000024FF00003C1E9022331494FF03E
:1057600000024FF00003C1E900232D4B93ED207B95
:10577000B7EE006B37EE067B294B83ED207B284B81
:10578000DB6F284A92ED027B9FED1D6B27EE067BB7
:105790009FED1D6B37EE067BB0EE470B1846FFF70B
:1057A0002FFC1F4BDB6E1F4A92ED007B9FED186BA9
:1057B00027EE067B9FED186B37EE067BB0EE470BAE
:1057C0001846FFF71DFC1A4B9A6A01329A629B6ACF
:1057D00007EE903AB8EE676B154B93ED0C7B144BCC
:1057E00026EE077B83ED087B00BF08BDAFF300808A
:1057F0000000000000006940000000000000994027
:10580000AAF1D24D62100640986E1283C0EA4F4052
:1058100048E17A14AE470B401F85EB51B8BE4D40AE
:10582000680E0020280E0020000024C00000104058
:10583000000F00200000000008B58D494FF0000265
:105840008C4BC1E90E238A4983A3D3E90023C1E924
:105850000C23874B884A9A60854B884ADA60844BD0
:10586000874A1A61824B874A5A61814B864A5A603D
:10587000854B864A1A60854B854A1A60834B844A59
:105880005A60824B824A9A60804B814ADA607F4B31
:105890007F4A1A617D4B7E4A5A617C4B7C4A9A61F1
:1058A0007A4B7B4ADA61794B794A1A62774B784AAC
:1058B0005A62764B764A9A62744B754ADA626C4A3F
:1058C0006B4B5B6818329A60694A694B5B680832B7
:1058D0005A60674A664B5B682032DA606D4B002283
:1058E00083F840206B4B01225A641020FFF7C2F866
:1058F0000346684AD364674BDB6C002200211846DC
:10590000FFF710F9634B012283F84820614B002216
:1059100083F830205F4B01225A639220FFF7AAF8E8
:1059200003465C4AD3635B4BDB6B002200211846C5
:10593000FFF7F8F8574B012283F83820554B002227
:1059400083F82020534B01225A629320FFF792F8EC
:105950000346504AD3624F4BDB6A002200211846AF
:10596000FFF7E0F84B4B012283F82820494B002237
:105970001A74484B01225A619420FFF77BF80346C2
:10598000444AD361434BDB69002200211846FFF7EC
:10599000C9F8404B01221A763E4B00221A703D4B4B
:1059A00001225A609020FFF765F80346394AD36018
:1059B000384BDB68002200211846FFF7B3F8354B5F
:1059C00001221A72334B002283F85020314B0122FE
:1059D0005A6500216F20FFF74FF903462D4AD36522
:1059E0002C4B012283F858202A4B002283F8702088
:1059F000284B01225A679FED1A1B9FED1B0B0C20B1
:105A0000FFF76AFA0346234AD367224BDB6F184637
:105A1000FFF7F0FA1F4B012283F878201D4B00227C
:105A200083F860201B4B01225A669FED0D1B9FEDF2
:105A30000E0B6620FFF750FA0346164AD366154B45
:105A4000DB6E1846FFF7D6FA124B012283F8682066
:105A500000BF08BDAFF300807B14AE47E17A743F0E
:105A6000CDCCCCCCCCCC4C40000000000088C34056
:105A7000000F00200000F0BF940624F4862F845A03
:105A8000EF99B5A8B80939D7480F00205C0F00205E
:105A9000C4E50008680E002008B56B4B93F8403051
:105AA000002B16D1684B012283F84020664B5B6CBB
:105AB000012B0ED1644B93F84830002B09D0624B78
:105AC000DB6C1846FFF763F85F4BDB6C1846FFF79B
:105AD00063F85D4B93F83030002B16D15A4B0122FE
